:020000040800F2
:1000000028050020DD010008FB180008A9160008DB
:10001000F91800082D040008D91D00080000000090
:10002000000000000000000000000000FF180008B1
:100030002F04000800000000FD1800080119000846
:10004000F7010008F7010008F7010008F7010008B0
:10005000F7010008F7010008F7010008F7010008A0
:10006000F7010008F7010008F7010008F701000890
:10007000F7010008F7010008F7010008F701000880
:10008000F7010008F7010008E9020008F70100087D
:10009000F7010008F7010008F7010008F701000860
:1000A000F7010008F7010008F7010008F701000850
:1000B000F7010008B9190008F7010008F701000866
:1000C000F7010008F7010008F7010008F701000830
:1000D000F7010008F7010008F7010008F701000820
:1000E00031040008F7010008F7010008F7010008D3
:1000F000F7010008F7010008F7010008F701000800
:10010000F7010008F7010008F7010008F7010008EF
:10011000F7010008F7010008F7010008F7010008DF
:10012000F7010008F7010008F7010008F7010008CF
:10013000F70100080000000000000000F7010008BF
:10014000F7010008F7010008F7010008F7010008AF
:10015000F7010008F7010008F7010008F70100089F
:10016000F7010008F7010008F7010008F70100088F
:10017000F7010008F7010008F7010008000000007F
:1001800000000000F701000800000000000000006F
:10019000F70100080000000000000000F70100085F
:1001A000000000000000000000000000F70100084F
:1001B000F7010008F7010008F7010008F70100083F
:1001C000F7010008DFF810D000F07CF80048004785
:1001D000191E0008AFF3008028050020064880475C
:1001E00006480047FEE7FEE7FEE7FEE7FEE7FEE71C
:1001F000FEE7FEE7FEE7FEE79D190008C5010008DF
:100200002DE9F05F0546002092469B46884606464B
:10021000814640241BE0284641464746224600F0DE
:1002200041F853465A46C01A914110D31146184618
:10023000224600F028F82D1A67EB01084F462246A7
:100240000120002100F01FF817EB00094E41201E8D
:10025000A4F10104DFDC484631462A464346BDE8A6
:10026000F09FD2B201E000F8012B491EFBD270478B
:100270000022F6E710B513460A4604461946FFF772
:10028000F0FF204610BD202A04DB203A00FA02F1DC
:10029000002070479140C2F1200320FA03F3194374
:1002A00090407047202A04DB203A21FA02F0002116
:1002B000704721FA02F3D040C2F120029140084376
:1002C00019467047064C074D06E0E06840F0010310
:1002D00094E8070098471034AC42F6D3FFF776FF56
:1002E000341F0008541F000810B52021034800F0F7
:1002F00069FBBDE81040024800F06EB90000024002
:1003000020000020464910B54A6822F440324A6075
:100310004A6843681A434A6001684A6822F4807256
:100320004A6001684A68036942EA03224A60016838
:100330004A6822F040724A6001684A6883681A433A
:100340004A6001688A6822F400628A6001688A68EB
:10035000C3681A438A60816A6FF07062D142016893
:100360008A6822F070628A6001688A680CD0836AA9
:100370001A438A6001688A6822F040528A600168E4
:100380008A68C36A1A4301E022F040528A60016819
:100390008A6822F002028A6001688A68037E42EA63
:1003A00043028A6090F82010002901684A680FD043
:1003B00042F400624A6001684A6822F460424A607E
:1003C00001684A68174C436A04EB43331A4301E05F
:1003D00022F400624A600168CA6A22F47002CA62AA
:1003E0000168CA6A838B104C04EB03531A43CA6238
:1003F00001688A6822F400728A6001688A6890F84D
:10040000303042EA43228A6001688A6822F48062BE
:100410008A6001688A68406942EA8020886010BD6D
:100420000023014000E0FFFF0000F0FFFEE77047FF
:100430000C4810B5D0E900130A228A1843F10001D4
:10044000C0E9002100204FF6FF71401C8842FCDB10
:100450002021054800F0B6FABDE810404FF40050E6
:1004600000F0D0B9000000200000024070470000FA
:1004700078B50024009490F83C20012A19D001227C
:1004800080F83C200A6807230568092A13D9EE681A
:100490000A3A02EB420293409E43EE600B788A6870
:1004A0000A3B03EB43039A400368DD682A43DA60A2
:1004B00010E0022078BD2E6902EB420293409E4379
:1004C0002E610B788A6803EB43039A4003681D6929
:1004D0002A431A614A681F23072A13D205686E6BE4
:1004E000521E02EB820293409E436E630A8893B2CF
:1004F0000A79521E02EB820293400268556B2B432D
:10050000536327E005680D2A12D22E6BD21F02EB2F
:10051000820293409E432E630B790A88DB1F92B2BE
:1005200003EB83039A4003681D6B2A431A6311E0AF
:10053000EE6A0D3A02EB820293409E43EE620B7923
:100540000A880D3B92B203EB83039A400368DD6A8D
:100550002A43DA621B4B0568194A9D420AD10D688D
:10056000122D07D1556825F400055560556845F4EE
:100570008005556005689D421DD1134D0B68AB4247
:1005800001D0112B17D1536823F4800353605368B3
:1005900043F4000353600968A9420CD10B490C4A8B
:1005A0000968B1FBF2F101EB8101490000E0491E4D
:1005B00000910029FBD180F83C40002078BD00006C
:1005C0000023014000200140120000101C00002008
:1005D00040420F007047704770B5044600680168DC
:1005E0004268C1F34001C2F3401251B34AB3216CD7
:1005F000C90603D4216C41F400712164816811F0B3
:10060000405F17D1217EA9B9C16A11F4700F02D0E1
:10061000816849050ED4416821F020014160206CB9
:1006200020F480702064206CC00403D4206C40F05F
:10063000010020642046FFF7CDFF21686FF0120013
:100640000860206801684268C1F38001C2F3C012EB
:1006500089B382B3216CC90603D4216C41F40051E3
:100660002164816811F4401F1ED1816B11F4401F79
:1006700002D08168490517D44168490514D48168BE
:1006800011F0405F10D1217E71B9416821F08001E5
:100690004160206C20F480502064206CC00503D49D
:1006A000206C40F0010020642046FFF7DFFE216847
:1006B0006FF00C00086020680168426811F0010FBB
:1006C000C2F380120ED06AB10068C0070AD0206C55
:1006D00040F480302064204600F046F821686FF036
:1006E00001000860206801684268C1F34011C2F34C
:1006F000806200290DD0002A0BD0616C41F002010C
:1007000061646FF0200505602046FFF764FF2068F4
:10071000056070BD70B504004FF0000503D0206C7B
:10072000002610B107E0012070BD204600F01EF841
:10073000666484F83C60206CC00610D4206C20F401
:10074000885040F0020020642046FFF7DBFD66641D
:10075000206C20F0020040F00100206400E0012540
:1007600084F83C60284670BD7047000010B586B024
:10077000044614216846FFF77BFD1549206888422E
:1007800023D114480021026842F48072026000689C
:1007900000F4807005900F481438026842F004029B
:1007A0000260006800F00400059003200090CDE98D
:1007B00001016946084800F031F800221146122074
:1007C00000F07CF9122000F06BF906B010BD0000BB
:1007D00000200140443802400008024070B5044641
:1007E00000F0FCF80546601C02D004480078044480
:1007F00000F0F4F8401BA042FAD370BD10000020B6
:1008000070470000044910B50A68024202D008602F
:10081000FFF7F6FF10BD0000143C01402DE9F84F32
:1008200000224FF0010803254FF00F0E0B6808FA65
:1008300002F42340A3426ED14E68012E05D0022E51
:1008400003D0112E01D0122E12D186684FEA420C2D
:1008500005FA0CF7BE43CF6807FA0CF737438760F9
:100860004668A6430C79C4F30014944034434460B2
:10087000C668570005FA07FC8C6826EA0C06BC40DF
:100880003443C4604C68022C01D0122C13D1D4081C
:1008900000EB8404A346D4F8209054074FEAD46AAE
:1008A0000EFA0AF629EA06090E6906FA0AF646EA77
:1008B0000906CBF8206006680C7926EA0C0604F0DD
:1008C0000304BC40344304604C68E40060D5334CFE
:1008D000266846F480462660246822F0030604F465
:1008E000804400942E4C3444A446D4F8084896071B
:1008F000370F0EFA07F6B4432A4EB04201D1002654
:100900001FE0294EB04201D101261AE0274EB04225
:1009100002D1022615E03BE0254EB04201D103266C
:100920000FE0244EB04201D104260AE0224EB0422C
:1009300001D1052605E0214EB04201D1062600E096
:100940000726BE402643CCF808681D4E34684F6821
:100950009C43FF0300D51C433460194E361D346898
:100960004F689C43BF0300D51C433460144E0836C7
:1009700034684F689C43FF0200D51C433460104E1E
:100980000C3634684F689C43BF0200D51C4334606A
:10099000521C102AFFF44AAFBDE8F88F44380240D9
:1009A0000030014000000240000402400008024004
:1009B000000C0240001002400014024000180240E7
:1009C000003C0140426931EA020200D10904816120
:1009D00070470AB1816170470904FBE701488068EC
:1009E000704700001000002002488168027811441E
:1009F00081607047100000200B4810B5016841F479
:100A000000710160016841F480610160016841F496
:100A100080710160032000F071F8002000F006F8FA
:100A200000F024F8002010BD003C024070B50D4DD0
:100A300004464FF47A712878B1FBF0F00A4909684E
:100A4000B1FBF0F000F012FB48B9102C07D20022E5
:100A50002146501E00F032F800206C6070BD01206D
:100A600070BD0000100000201C0000200B4882B068
:100A7000016841F480410160006800F4804000900A
:100A80000648001F016841F080510160006800F0D5
:100A900080500090072002B000F030B84438024087
:100AA000002809DB00F01F0201219140400980006D
:100AB00000F1E020C0F8001170470000F0B40E4BC8
:100AC0001B680C46C3F30223C3F10705042D00D9AC
:100AD0000425191D072901D2002300E0DB1E012691
:100AE00006FA05F1491E214099409E40761E1640A7
:100AF0003143F0BC01F071B90CED00E0064900F0A3
:100B0000070208684FF6FF03184040EA0220034A34
:100B100010430860704700000CED00E00000FA058B
:100B20002DE9F0470E46050065D0DFF81481D8F8AE
:100B30000000F7B200F00F00B04207D288F8007052
:100B4000D8F8000000F00F00B04254D128683D4CA6
:100B5000810712D5400703D5206840F4E05020609B
:100B60002878000703D5206840F4604020602068A2
:100B7000A96820F0F000084320602878C0072DD035
:100B8000304968680839012812D0022813D0032898
:100B900011D00968890700292DDA216821F00301A5
:100BA00001432160FFF71AFF814641F2883A0EE0C7
:100BB00009688903EFE709688901ECE7FFF70EFF91
:100BC000A0EB0901514502D90320BDE8F087206858
:100BD000696800F00C00B0EB810FEFD1D8F800107D
:100BE000404601F00F01B14207D90770006800F0DC
:100BF0000F00B04201D00120E7E72878400705D573
:100C00002068E96820F4E050084320602878000755
:100C100006D52068296920F4604040EAC1002060C0
:100C200000F038F82168084AC1F30311515CC8404C
:100C30000649086006480068FFF7F8FE0020C4E790
:100C4000003C0240083802401C1F00081C00002025
:100C5000140000200448054900680968044AC1F3EB
:100C60008221515CC84070471C00002008380240B7
:100C70002C1F00080448054900680968044AC1F3AC
:100C80004231515CC84070471C00002008380240C7
:100C90002C1F0008224810B5006810F00C022148F3
:100CA00015D04110042A11D01D4C241F082A0FD042
:100CB0000C2A0CD12268236802F03F025B0221D586
:100CC0002068C0F38810A0FB010120E0084610BD99
:100CD0002268236802F03F025B0205D52068C0F35A
:100CE0008810A0FB010104E02168C1F38811A1FB79
:100CF00000010023FFF784FA2168C1F30141491C78
:100D000049000AE02168C1F38811A1FB000100231A
:100D1000FFF776FA2168C1F30271B0FBF1F010BD64
:100D2000083802400024F4002DE9F84F0546DFF8AA
:100D300028B30078ABF10407C007A7F1040451D031
:100D4000DBF800105846C1F3810101290FD001687A
:100D5000C1F38101022902D13968490207D4006830
:100D6000C0F38100032809D13868400206D5206805
:100D7000800337D56868002872D033E06868B0F522
:100D8000803F10D0B0F5A02F206810D020F4803024
:100D90002060206820F4802020606868A8B1FFF7F8
:100DA0001DFE06460DE0206840F48030F4E740F474
:100DB00080202060F7E700BFFFF710FE801B64284B
:100DC00078D820688003F7D50CE0FFF707FE0646C9
:100DD00005E000BFFFF702FE801B6428F0D8206802
:100DE0008003F7D42878DFF8749280074FF0000A68
:100DF00046D5DBF80010584611F00C0F0FD00168F3
:100E0000C1F38101022902D13968490207D500687E
:100E1000C0F38100032809D13868400206D4206855
:100E2000800715D5E86801281AD111E0E868C0B13B
:100E30000120C9F80000FFF7D1FD064605E000BF1C
:100E4000FFF7CCFD801B0228BAD820688007F7D5B1
:100E50002068296920F0F80040EAC10020600FE016
:100E6000F7E0C9F800A0FFF7B9FD064605E000BFAE
:100E7000FFF7B4FD801B02281CD820688007F7D438
:100E80002878000727D5DFF8D0817548696908F10F
:100E90006C0881B101210160FFF7A0FD064604E066
:100EA000FFF79CFD801B022804D8D8F800008007BB
:100EB000F6D510E089E0C0F800A0FFF78FFD0646E8
:100EC00005E000BFFFF78AFD801B02287DD8D8F817
:100ED00000008007F6D42878400769D55E484FF0B7
:100EE000000838300068C0000BD45B483830016817
:100EF00041F08051016000684FF0010800F080501F
:100F00000090584E3068C00511D4306840F48070AD
:100F10003060FFF763FD009006E000BFFFF75EFD65
:100F20000099401A022850D83068C005F6D54A4EBC
:100F3000A868683601280FD00528306810D020F046
:100F400001003060306820F004003060A868B8B15B
:100F5000FFF744FD00900FE0306840F00100F4E737
:100F600040F004003060F7E7FFF738FD0099411AC0
:100F700041F28830814264D830688007F4D50EE0B1
:100F8000FFF72CFD009007E0FFF728FD0099411ABC
:100F900041F28830814254D830688007F4D4B8F1E7
:100FA000000F05D02C483830016821F080510160D5
:100FB000A869A8B3DBF80010C1F38101022948D069
:100FC0000228C9F860A005D000E03AE0FFF706FD6E
:100FD000054639E0FFF702FD064604E0FFF7FEFC98
:100FE000801B02282DD820688001F7D4F5E907017D
:100FF0000843E9681C4A490802EB0141AA6841EA32
:1010000082110843297C40EA0160297D40EA017091
:1010100038600120C9F86000FFF7E0FC054606E0F3
:1010200015E000BFFFF7DAFC401B022809D8206852
:101030008001F7D50BE000BFFFF7D0FC401B022872
:1010400002D90320BDE8F88F20688001F4D4002085
:10105000F8E70120F6E700000838024000004742A8
:10106000800E4742007000400000FFFF10B5401E98
:10107000B0F1807F01D3012010BD4FF0E02460610A
:101080000F21601700F0A9FE0020A0610720206159
:10109000002010BD7047704770B590F83C20012AC1
:1010A00032D0012480F83C40022280F83D200368C1
:1010B0005A689D6822F070060A6832435A60134BE2
:1010C00002689A4214D0B2F1804F11D0104B9A426C
:1010D0000ED0104B9A420BD00F4B9A4208D00F4BB8
:1010E0009A4205D00E4B9A4202D00E4B9A4204D13E
:1010F000496825F080031943916080F83D40002144
:1011000080F83C10084670BD022070BD0000014010
:101110000004004000080040000C004000040140B2
:10112000004001400018004010B5040003D094F8BE
:101130003D0010B107E0012010BD002084F83C0004
:10114000204600F00DF8022084F83D00211D2068A3
:1011500000F044FC012084F83D00002010BD000098
:1011600008B501681048B1F1804F14D00F4A914280
:1011700019D1016841F0020101600068002200F00D
:101180000200009011461D20FFF798FCBDE80840C2
:101190001D20FFF785BC016841F001010160006876
:1011A00000F00100009008BD4038024000040040FB
:1011B0000168CA6842F00102CA600068816801F0F3
:1011C0000701062903D0016841F0010101600020F8
:1011D000704770B5044690F83C00012817D00125EF
:1011E00084F83C50022084F83D002068826822F098
:1011F000770222F47F4282600868502830D00DDCEC
:1012000020284DD005DC98B310283BD148E00220BF
:1012100070BD302844D0402834D139E0602828D02F
:10122000702806D0B0F5805F2CD0B0F5005F29D1D2
:101230000AE0CB68D1E90121206800F040FC206879
:10124000816841F0770109E0CB68D1E9012120688C
:1012500000F035FC2068816841F48041816011E034
:10126000CA684968206800F0FFFC5021206807E048
:1012700016E0CA684968206800F007FD6021206810
:1012800000F027FC84F83D50002084F83C0070BD3D
:10129000CA684968206800F0E7FC40212068EFE751
:1012A000226801461046EBE7704770B504460068B7
:1012B00001694FF00005C943890715D4C168C943C6
:1012C000890711D4E91E0161012020772068806917
:1012D0008007204602D0FFF7E7FF04E000F0D4F8D3
:1012E000204600F056F9257720680169C94349076F
:1012F00017D4C168C943490713D46FF004010161D1
:10130000022020772068806910F4407F204602D0B8
:10131000FFF7CAFF04E000F0B7F8204600F039F903
:10132000257720680169C943090716D4C168C943F4
:10133000090712D46FF008010161042020772068AA
:10134000C0698007204602D0FFF7AEFF04E000F03E
:101350009BF8204600F01DF9257720680169C943F4
:10136000C90617D4C168C943C90613D46FF0100168
:101370000161082020772068C06910F4407F204672
:1013800002D0FFF791FF04E000F07EF8204600F065
:1013900000F9257720680169C943C90708D1C168E8
:1013A000C943C90704D1891E0161204600F014F920
:1013B00020680169C943090609D4C168C9430906FF
:1013C00005D46FF0800101612046FFF763FE2068BD
:1013D0000169C943490609D4C168C943490605D40E
:1013E0006FF040010161204600F0F7F820680169C4
:1013F000C94389060BD4C168C943890607D46FF075
:10140000200101612046BDE87040FFF744BE70BD79
:1014100070B586B0044614216846FEF729FF20689F
:10142000B0F1804F27D115480024016841F0010137
:101430000160016801F001010591016841F00201BC
:1014400001600068022500F0020005900320009072
:10145000CDE901540126CDE9034669460848FFF766
:10146000DDF968020090CDE90154CDE903466946F3
:101470000448FFF7D3F906B070BD000030380240D1
:101480000000024000040240704770B5044690F826
:101490003C000D4601280DD0012684F83C60022056
:1014A00084F83D0042B1042A18D0082A2AD00C2A18
:1014B0004DD139E0022070BD206800F013FB206898
:1014C000816941F0080181612068816921F004018E
:1014D0008161206881692A69114311E0206800F068
:1014E00031FB2068816941F4006181612068816974
:1014F00021F480618161206881692A6941EA0221C1
:10150000816124E0206800F053FB2068C16941F04C
:101510000801C1612068C16921F00401C16120682E
:10152000C1692A69114311E0206800F075FB206849
:10153000C16941F40061C1612068C16921F4806121
:10154000C1612068C1692A6941EA0221C16184F848
:101550003D60002084F83C0070BD10B5040003D04D
:1015600094F83D0010B107E0012010BD002084F880
:101570003C00204600F00CF8022084F83D00211DBC
:10158000206800F02BFA012084F83D00002010BDF7
:101590007047704710B504460068012200F082FAD7
:1015A0000B492068884202D00A49884203D1416C25
:1015B00041F4004141642068816801F00701062977
:1015C00003D0016841F001010160002010BD00005E
:1015D00000000140000401407047704770B50400EE
:1015E00004D094F83900002510B106E0012070BD48
:1015F00084F83850204600F023F8242084F839007D
:101600002068C16821F40051C160204600F050FB01
:101610002068016921F4904101612068416921F04D
:101620002A0141612068C16841F40051C160E5634D
:10163000202084F8390084F83A00002070BD0000B2
:1016400010B586B0044614216846FEF711FE134912
:101650002068884220D112480021026842F40032FA
:101660000260006800F4003005900D4810380268F0
:1016700042F001020260006800F0010005900C20B9
:1016800000900220CDE9010103200390072004907F
:1016900069460448FFF7C2F806B010BD0044004098
:1016A0004038024000000240FEE700007FB5002401
:1016B00015480094019402941249039401604FF478
:1016C0008031C0E901140461047680F820400F499C
:1016D000C0E90A140125C561C46080F83040456145
:1016E000FFF718F808B172B6FEE70A20CDE9000549
:1016F000694602940448FEF7BBFE002801D072B68A
:10170000FEE77FBD00200140200000200100000F07
:1017100030B587B014216846FEF7AAFD254800249D
:10172000016841F004010160016801F004010591C4
:10173000016841F080010160016801F080010591BC
:10174000016841F001010160016801F001010591AA
:10175000016841F0020101600068174D00F00200CD
:101760000590002220212846FFF733F90122D102FB
:101770002846FFF72EF94FF4005000900F48CDE9AE
:10178000010469460E48FFF749F84FF402600090E3
:101790000120CDE90104694628460394FFF73EF88D
:1017A000002211462820FFF789F92820FFF778F951
:1017B00007B030BD30380240000002400000211068
:1017C0000008024010B58EB00024079408940994D4
:1017D0000A940B941C2168460C94FEF749FD264898
:1017E0004FF0804101602921C0E9011440F2E73146
:1017F000C0E903148461FFF797FC08B172B6FEE7F5
:101800004FF48050079007A91B48FFF7E2FC08B18E
:1018100072B6FEE71848FFF7A0FE08B172B6FEE701
:101820000B940BA914480C94FFF736FC08B172B660
:10183000FEE76020CDE900040294002269460E48CC
:101840000494FFF722FE08B172B6FEE7042269464F
:101850000948FFF71AFE08B172B6FEE7082269468A
:101860000548FFF712FE08B172B6FEE70248FFF71F
:10187000CFFD0EB010BD00006800002010B586B08E
:1018800000241C4800940194029403940494184981
:10189000059401602721C0E901144AF20F41C0E913
:1018A00003148461FFF740FC08B172B6FEE74FF401
:1018B0008050009069460F48FFF78BFC08B172B664
:1018C000FEE7049404A90B480594FFF7E5FB08B173
:1018D00072B6FEE70748FFF76BFC002211461D2099
:1018E000FFF7ECF81D20FFF7DBF806B010BD000095
:1018F00000040040A8000020FEE7FEE770477047A4
:10190000FFF772B830B593B034216846FEF7B0FCEB
:1019100014210DA8FEF7ACFC1E480025016841F01B
:1019200080510160006800F0805012901A480168F0
:1019300021F4404141F4804101600068022400F438
:1019400040401290012003901020009406940490CF
:10195000CDE907504FF4A87009900420CDE90A049E
:1019600068460C94FFF7E0F908B172B6FEE70DA9DE
:101970000F2081E831004FF48050CDE9100502219D
:101980000DA8FFF7CDF8002801D072B6FEE713B01E
:1019900030BD00004038024000700040054801683A
:1019A00041F47001016003494FF000608039086024
:1019B0007047000088ED00E0064830B490E81C0055
:1019C000C168A2185941C0E9022130BC0248FFF7A2
:1019D0006CBC000000000020A8000020F0B50268E8
:1019E000254C264D264E274F274B4FF0804CA042CA
:1019F00009D0604507D0A84205D0B04203D0B84214
:101A000001D0984204D122F0700E4A6842EA0E02D8
:101A1000A0421BD0604519D0A84217D0B04215D0C3
:101A2000B84213D0984211D0184DA8420ED0184D8C
:101A3000A8420BD0174DA84208D0174DA84205D098
:101A4000164DA84202D0164DA84203D122F440758B
:101A5000CA682A434D6922F080022A4302608A68DC
:101A6000C2620A688262A04201D0984201D109692B
:101A7000016301214161F0BD00000140000400400C
:101A800000080040000C00400004014000400140FC
:101A9000004401400048014000180040001C004084
:101AA0000020004010B501F01F030121046A994095
:101AB0008C430462016A9A401143016210BD10B563
:101AC000846842EA032224F47F440A43224382606A
:101AD00010BD826822F070020A4342F00701816063
:101AE00070470000F0B5026A22F001020262036A48
:101AF00042688469124E24F073050C682C4323F06D
:101B000002058B682B430D4DA84201D0B04205D190
:101B100023F00807CB683B4323F00403A84201D01D
:101B2000B04205D14D6922F4407215438A692A43B7
:101B300042608461496841630362F0BD0000014076
:101B400000040140F0B5026A22F010020262026A4B
:101B5000436884690D6824F4E64444EA05248D68EA
:101B600022F0200242EA05120F4D104EA84201D089
:101B7000B04206D1CF6822F0800242EA071222F07A
:101B80004002A84201D0B04207D14D6923F440631E
:101B900043EA85038D6943EA8503436084614968AC
:101BA00081630262F0BD00000000014000040140BA
:101BB000F0B5026A22F480720262026A4368C46964
:101BC00022F4007224F073050C68124E2C438D68C9
:101BD00042EA05220E4DA84201D0B04206D1CF689C
:101BE00022F4006242EA072222F48062A84201D075
:101BF000B04207D14D6923F4405343EA05138D6980
:101C000043EA05134360C4614968C1630262F0BDE1
:101C1000000001400004014030B5026A22F4805205
:101C20000262046A4268C3690D6823F4E64343EA2A
:101C300005238D6824F4005444EA0534084DA84275
:101C400002D0084DA84204D14D6922F4804242EAF4
:101C500085124260C36149680164046230BD0000BE
:101C6000000001400004014010B5036A046A24F03A
:101C700001040462846924F0F00444EA021423F0AD
:101C80000A020A438461026210BD10B5036A23F0A0
:101C9000100303628369046A23F4704343EA023247
:101CA00024F0A00343EA01118261016210BD00002B
:101CB0002DE9F041044600680169E26821F44051D1
:101CC000114301612169A068E26908436169114318
:101CD00008432168CA6849F20C639A430243CA6008
:101CE00020684169A26921F4407111434161E069B2
:101CF000192764253226B0F5004F354A354920684A
:101D00004FF0000806D0884201D0904236D1FEF74D
:101D1000B1FF35E0884201D0904202D1FEF7AAFF20
:101D200001E0FEF797FF61684A18A0FB070148EB46
:101D30000803FEF765FA0146B0FBF5F00201B1FBBE
:101D4000F5F06FF01803584301EB800006EBC0007C
:101D5000B0FBF5F000F0F80002EB4002B1FBF5F04B
:101D6000584301EB800006EBC000B0FBF5F000F03B
:101D70000700216810448860BDE8F081FEF76AFF23
:101D800061688B0F8A00A0FB0701FEF739FA014654
:101D9000B0FBF5F06FF01802504301EB800006EB4A
:101DA0000010B0FBF5F000F0F002B1FBF5F002EB33
:101DB0000012B1FBF5F06FF01803584301EB8000FF
:101DC00006EB0010B0FBF5F000F00F00D1E70000CB
:101DD0000014014000100140FEE70907090E002829
:101DE00004DB00F1E02080F80014704700F00F00E1
:101DF00000F1E02080F8141D704702E008C8121FAF
:101E000008C1002AFAD170477047002001E001C1E3
:101E1000121F002AFBD17047FEF7EEFDFFF772FD9F
:101E2000FFF776FC3B483A490C2201604FF4E13160
:101E3000416000218160C160C0E904128161C1611B
:101E4000FFF7CCFB08B172B6FEE7FFF72FFCFFF7F8
:101E5000B9FCFFF713FD2F4800218038FFF79AFBEC
:101E60002C4804218038FFF795FB2A480821803848
:101E7000FFF790FBDFF89CA04FF47A7BAAF1800A71
:101E8000254940F29B220023D1E90001861841F147
:101E900000075200851841F100085A46FEF7B0F9D4
:101EA0008146D4B25A46002330463946FEF7A8F997
:101EB0000746D6B25A46002341462846FEF7A0F907
:101EC0000346D1B25FEAC97019D0DAF80000A4F273
:101ED000E73462424263F80715D0DAF80000A6F250
:101EE000E73672428263D80702D0A1F2E731494255
:101EF000DAF80000C1630A20FEF770FCC0E7DAF8E8
:101F000000004463E7E7DAF800008663EBE70000CF
:101F100000440040E800002008000020000000000D
:101F20000000000001020304060708090000000089
:101F300001020304541F00080000002020000000DC
:101F4000FA1D0008741F000820000020080500008A
:101F50000A1E00080A000000000000000000000047
:101F60000000000001000000100000000000000060
:041F70000024F40055
:04000005080001C529
:00000001FF
